S011000070696E67706F6E67322E737265637F
S113000014C011C22DC02CC02BC02AC029C028C0C6
S113001027C026C025C0CCC38CC322C021C020C0A9
S11300201FC01EC01DC00D0A000011241FBECFE555
S1130030D4E0DEBFCDBF10E0A0E6B0E0EAEEF0E130
S113004002C005900D92AA3EB107D9F711E0AAEEBD
S1130050B0E001C01D92A93CB107E1F790D043C8BC
S1130060CFCFFC012091EA002F5F2093EA0081E0CA
S113007090E0DB0111969C938E932083118280E0A3
S113008008950F931F93DF93CF93CDB7DEB7C45674
S1130090D0400FB6F894DEBF0FBECDBFFC01858102
S11300A096818130910529F08230910509F05AC07A
S11300B027C000D000D000D02DB73EB72F5F3F4FF0
S11300C08E010F5F1F4FADB7BEB712961C930E93F0
S11300D0119780E690E0D90113969C938E93129722
S11300E08781908515969C938E93149709D5EDB7C7
S11300F0FEB736960FB6F894FEBF0FBEEDBF2EC006
S11301008DB79EB708970FB6F8949EBF0FBE8DBFEC
S11301102DB73EB72F5F3F4F8E010F5F1F4FADB717
S1130120BEB712961C930E93119783E790E0D90102
S113013013969C938E93129787819085A185B2859F
S1130140F90184839583A683B783DAD48DB79EB7E8
S113015008960FB6F8949EBF0FBE8DBFC801D5D3C5
S113016081E001C080E0CC59DF4F0FB6F894DEBFC8
S11301700FBECDBFCF91DF911F910F9108952F92A4
S11301803F924F925F926F927F928F929F92AF9223
S1130190BF92CF92DF92EF92FF920F931F93DF9360
S11301A0CF93CDB7DEB7CA50D1400FB6F894DEBFB7
S11301B00FBECDBF1C861D861E861F86FE0170964F
S11301C08BEFDF011D928A95E9F781B3806681BBCD
S11301D0B998BF9A979A2FD362D2789488E890E01E
S11301E094D3B19903C0BB24B39402C043E0B42EAA
S11301F03CE0E32EF12CEC0EFD1E00D000D000D02C
S1130200EDB7FEB73196ADB7BEB71296FC92EE923B
S1130210119783E990E093838283B482158270D42A
S1130220EDB7FEB736960FB6F894FEBF0FBEEDBF1E
S1130230C7016BD3CC24DD2400E010E0882499248A
S11302402FE9422E20E0522E91E0292E312C3E013E
S11302500894611C711C0894811C911C01151105E2
S113026019F00150104019F4969800E010E0C11400
S1130270D10431F00894C108D108C114D10419F48F
S11302809598CC24DD24E0915E01F0915F0180819A
S1130290823009F046C0969AA1808F010C5F1F4FEF
S11302A03AC0C801EEDED80114968C91149781509F
S11302B014968C931497882361F1EDB7FEB73A979F
S11302C00FB6F894FEBF0FBEEDBF3196ADB7BEB703
S11302D01296FC92EE92119753824282D8011196A3
S11302E09C9111979483158213969C9196831782FF
S11302F08087118605D4EDB7FEB73A960FB6F89409
S1130300FEBF0FBEEDBFC70100D38BE060E0A801C4
S11303108BD1F5EFAF0E2A2D2B3018F6A0D100E1CA
S113032017E28114910409F040C08091EA008F5FC4
S11303308093EA003F822E82888719861982BA82C6
S11303401B821C8235E03D838DB79EB70A970FB69A
S1130350F8949EBF0FBE8DBFEDB7FEB73196ADB713
S1130360BEB71296FC92EE92119724EC30E03383E0
S11303702283B48215821782168285E090E09187E9
S11303808087BED3ADB7BEB71A960FB6F894BEBF7A
S11303900FBEADBFC701B9D28BE060E0A30144D169
S11303A0959A80E1C82E87E2D82EEDD054CFC2981A
S11303B09FB9779BFECF8FB9779BFECFC29A0895E2
S11303C0C2989FB9779BFECF9FB1592F40E08FB958
S11303D0779BFECF2FB1C29A30E0242B352BC90175
S11303E00895C2981FB8779BFECFC29A8FB1089523
S11303F0C2988FB9779BFECF6FB9779BFECFC29A15
S11304000895C29880EB8FB9779BFECF1FB8779B76
S1130410FECFC29A8FB10895BB9ABD9ABA9ABC987E
S113042081E58DB9089578941F920F920FB60F92BB
S113043011241F932F933F934F935F936F937F9355
S11304408F939F93AF93BF93EF93FF938BB78F7B60
S11304508BBFC7DF87FF82C0809158018130E1F0F4
S1130460813020F0823009F071C058C011E010933F
S11304705B01C7DF8093EB00982F9D5F90935A0137
S1130480E0915C01F0915D019081992309F05EC0D7
S113049010935801818362C090915B0180915A014D
S11304A09817D8F4AEDF9091EB0098279093EB0067
S11304B020915B01213238F4E0915C01F0915D01FF
S11304C0E20FF11D818380915B01823011F49F3F23
S11304D0E9F58F5F80935B0141C0E0915C01F0918D
S11304E05D0182E080838091600190E001968170DB
S11304F0907080936001282F30E0C901880F991F04
S113050045E0220F331F4A95E1F7820F931F8E595E
S11305109E4F90935D0180935C0118C080915B01B4
S113052090915A01891750F4E82FF0E0EA55FE4FF4
S113053060818F5F80935B0188EB0FC0109259013B
S113054081E892E834DF88EB6AEA52DF10925801BE
S11305508AEC61E84DDF8AEC63E84ADF8BB780649C
S11305608BBFFF91EF91BF91AF919F918F917F913D
S11305706F915F914F913F912F911F910F900FBEFB
S11305800F901F901895809158018823C9F58BB757
S11305908F7B8BBF80E090E013DF2BB720642BBFF1
S11305A090FF04C088EC8093E80008958091E800EF
S11305B081508093E800882319F581E08093E80056
S11305C0809159018130E1F48BB78F7B8BBF81E03F
S11305D092E8EDDE8091A8018A5F80935A0110921F
S11305E05B0182E0809358018AEA98EBE0DE8AEAB4
S11305F098EBDDDE81E292E8DADE8BB780648BBFB4
S1130600089590915901992369F46093A801809306
S1130610A901862780958093AA0181E080935901DE
S113062080E8089583E008950F931F93182F062FF1
S11306308F3178F480915901882369F42BEA31E0F1
S1130640C901BA01412F50E033D2802F612FD9DF85
S113065003C082E001C083E01F910F910895E091EF
S11306605E01F0915F0110828091610190E001963A
S11306708170907080936101282F30E0C901880F48
S1130680991F65E0220F331F6A95E1F7820F931FCC
S11306908E599E4F90935F0180935E010895C29A94
S11306A0BA9ABADE87ED90E882DE81E092E87FDED6
S11306B080EB94EA7CDE83E296EC79DE8CE294E9CA
S11306C076DE8BEA92EC73DE81E89AEC70DE87EFDB
S11306D094EC6DDE80E798E96ADE80E098EC67DEF2
S11306E080E090EE64DE8DE28093A60184ED809339
S11306F0A70182E691E090935F0180935E0190935D
S11307005D0180935C0181E892E851DE85B78260E7
S113071085BF80E090E054DE8AB780648ABF81E8B8
S11307209AEC45DE83E89AEC42DE8BB780648BBF9B
S113073008951F920F920FB60F9211242F933F9397
S11307408F939F93EF93FF93209122013091230184
S113075080912401909125012817390711F45598A7
S11307601CC0E0912401F091250180818CB9809115
S113077024019091250101969093250180932401F1
S1130780809124019091250121E08835920729F474
S1130790C2979093250180932401FF91EF919F913B
S11307A08F913F912F910F900FBE0F901F9018952E
S11307B01F920F920FB60F9211242F933F938F9392
S11307C09F93EF93FF938091EC009091ED00209123
S11307D0EE003091EF00821B930B97FDC29681339C
S11307E09105ECF4E091EC00F091ED008CB1808384
S11307F08091EC009091ED0001969093ED00809330
S1130800EC008091EC009091ED0021E0823292079F
S113081039F4C2979093ED008093EC0001C08CB141
S1130820FF91EF919F918F913F912F910F900FBE68
S11308300F901F901895909A539A80B5866880BD42
S1130840549A10BC86E289B980EF90E09093EF004F
S11308508093EE008091EE009091EF009093ED0074
S11308608093EC0086E291E090932501809324012B
S1130870809124019091250190932301809322017A
S1130880579A0895DF93CF9300D0CDB7DEB7209168
S11308902201309123014091240150912501241B10
S11308A0350B3A83298329813A8137FF06C0298190
S11308B03A812E5C3F4F3A83298329813A8121333F
S11308C031052CF7F894E0912201F0912301808303
S11308D080912201909123010196909323018093AA
S11308E02201809122019091230121E08835920711
S11308F029F4C2979093230180932201559A789406
S11309000F900F90CF91DF910895EF92FF92CF93C4
S1130910DF93E82EE7017E01F92EE70101C0B2DF83
S113092089918823E1F7DF91CF91FF90EF900895AB
S1130930CF93DF93EC0102C0A5DF2196FE018491E1
S11309408823D1F7DF91CF910895BF92CF92DF92A0
S1130950EF92FF920F931F93DF93CF9300D00F92E8
S1130960CDB7DEB76C01062F172FBB247E01089488
S1130970E11CF11C1DC0F60181916F01992787FDCF
S11309809095B70140E150E09CD08A81882311F40E
S113099080E278DFC701B9DF80E274DFB394FB2D16
S11309A0F03121F486E290E0C3DFBB240150104013
S11309B00115110501F70F900F900F90CF91DF9162
S11309C01F910F91FF90EF90DF90CF90BF9008950B
S11309D02091EC003091ED008091EE009091EF00B9
S11309E028173907A9F3E091EE00F091EF00808118
S11309F02091EE003091EF002F5F3F4F3093EF00D6
S1130A002093EE002091EE003091EF0091E022322D
S1130A10390731F4225330403093EF002093EE0035
S1130A2008954091EC005091ED002091EE0030913A
S1130A30EF0042175307F9F0E091EE00F091EF0058
S1130A402081FC0120838091EE009091EF000196BB
S1130A509093EF008093EE008091EE009091EF0070
S1130A60F1E082329F0749F4C2979093EF0080939C
S1130A70EE0081E0089580E0089581E008950F93E9
S1130A801F93CF93DF938C01FC011082EC0101C012
S1130A902196CE01C6DF882319F0CD30D105C1F7E8
S1130AA09E01201B822FDF91CF911F910F910895FA
S1130AB0FB01DC0102C001900D9241505040D8F777
S1130AC00895FB019F01E8944230BCF04532ACF438
S1130AD04A3029F497FB1EF4909581959F4F642F1B
S1130AE07727B6D2805D8A330CF0895D8193CB0180
S1130AF00097A9F716F45DE251931082C9010EC262
S1130B00AEE0B0E0E5E8F5E0C5C20D891E8986E0F7
S1130B108C831A8309838FEF9FE79E838D839E01C5
S1130B20275E3F4FCE0101966F89788DA90108D0C9
S1130B30EF81F885E00FF11F10822E96E4E0C6C223
S1130B40ACE0B0E0E5EAF5E097C26C011B018A0174
S1130B50FC0117821682838181FFC4C12E0108948F
S1130B60411C511CF6019381F10193FD859193FF82
S1130B7081911F01882309F4B1C1853239F493FDB1
S1130B80859193FF81911F01853221F490E0B60194
S1130B90D5D1E8CFEE24FF2420E02032B0F48B320C
S1130BA069F08C3228F4803251F0833271F40BC036
S1130BB08D3239F0803349F421602CC022602460E6
S1130BC029C0286027C0206125C027FD2CC0382FEC
S1130BD030533A3098F426FF08C08E2D880FE82E43
S1130BE0EE0CEE0CE80EE30E15C08F2D880FF82ED8
S1130BF0FF0CFF0CF80EF30E20620CC08E3221F4B1
S1130C0026FD6CC1206406C08C3611F4206802C035
S1130C10883649F4F10193FD859193FF81911F0179
S1130C20882309F0BACF982F9554933018F0905236
S1130C30933028F40C5F1F4FFFE3F9830DC0833614
S1130C4031F0833771F0833509F05CC021C0F801BD
S1130C50808189830E5F1F4F420171E0A72EB12C62
S1130C6015C062E0662E712C600E711EF801808042
S1130C70918026FF03C06E2D70E002C06FEF7FEFFE
S1130C80C4012C8740D15C0183012C852F7716C0C9
S1130C9052E0652E712C600E711EF80180809180E7
S1130CA026FF03C06E2D70E002C06FEF7FEFC4011A
S1130CB02C871ED15C012C852068830123FD1EC076
S1130CC007C080E290E0B6012C8738D1FA942C85D5
S1130CD08F2D90E0A816B906A0F310C0F40127FDEB
S1130CE0859127FF81914F0190E0B6012C8726D191
S1130CF02C85F110FA940894A108B108A114B10448
S1130D0069F7E9C0843611F0893641F527FF08C038
S1130D10F80160817181828193810C5F1F4F09C04A
S1130D20F80160817181882777FD8095982F0E5F87
S1130D301F4F4FE6B42EB22297FF09C090958095BD
S1130D40709561957F4F8F4F9F4FF0E8BF2AA201A6
S1130D502AE030E01FD1782E741844C0853731F46E
S1130D603FEEB32EB2222AE030E025C099EFB92E2F
S1130D70B2228F36C1F0803720F4883509F0AEC036
S1130D800DC0803721F0883709F0A8C002C020E1E7
S1130D90B22AB4FE0BC084E0B82A08C0B4FE09C06D
S1130DA0E6E0BE2A06C028E030E005C020E130E0DD
S1130DB002C020E132E0B7FE08C0F8016081718111
S1130DC0828193810C5F1F4F07C0F801608171819C
S1130DD080E090E00E5F1F4FA201DCD0782E7418E3
S1130DE0FFE7BF22B6FE0BC02EEFB2227E1438F40A
S1130DF0B4FE07C0B2FC05C08FEEB82202C0A72C17
S1130E0001C0AE2C8B2D90E0B4FE0DC0FE01E70DA9
S1130E10F11D2081203319F4E9EEBE2209C0A39408
S1130E20B2FE06C004C086789070009709F0A394BF
S1130E308B2C9924B3FC13C0B0FE0EC0AF1428F45D
S1130E40E72CEF0CEA18AF2C07C0E72C05C080E2B2
S1130E5090E0B60173D0A394AF14C8F304C0AF14E8
S1130E6010F4FA1801C0FF2484FE0EC080E390E061
S1130E70B60164D082FE1DC081FE03C088E590E007
S1130E8010C088E790E00DC0C40186789070009788
S1130E9081F081FC02C080E201C08BE2B7FC8DE2EC
S1130EA090E0B6014BD005C080E390E0B60146D097
S1130EB0EA947E14C8F37A94F201E70DF11D80815F
S1130EC090E0B6013BD07720B1F705C080E290E016
S1130ED0B60134D0FA94FF20C9F744CEF601268136
S1130EE0378102C02FEF3FEFC9012C96E2E1E0C049
S1130EF0FC010590615070400110D8F780959095E1
S1130F008E0F9F1F0895FC016150704001900110E5
S1130F10D8F7809590958E0F9F1F0895DC01FC01F2
S1130F20672F71917723E1F7329704C07C916D9319
S1130F3070836291AE17BF07C8F308950F931F9390
S1130F40CF93DF938C01EB018B8181FF1BC082FF68
S1130F500DC02E813F818C819D812817390764F44F
S1130F60E881F9810193F983E88306C0E885F9856E
S1130F70802F0995009731F48E819F8101969F837C
S1130F808E8302C00FEF1FEFC801DF91CF911F9135
S1130F900F910895FA01AA27283051F1203181F1E7
S1130FA0E8946F936E7F6E5F7F4F8F4F9F4FAF4F6D
S1130FB0B1E03ED0B4E03CD0670F781F891F9A1F80
S1130FC0A11D680F791F8A1F911DA11D6A0F711D34
S1130FD0811D911DA11D20D009F468943F912AE040
S1130FE0269F11243019305D3193DEF6CF01089528
S1130FF0462F4770405D4193B3E00FD0C9F7F6CF59
S1131000462F4F70405D4A3318F0495D31FD405220
S1131010419302D0A9F7EACFB4E0A69597958795B6
S113102077956795BA95C9F7009761057105089595
S11310309B01AC010A2E0694579547953795279541
S1131040BA95C9F7620F731F841F951FA01D0895D9
S1131050AA1BBB1B51E107C0AA1FBB1FA617B707DA
S113106010F0A61BB70B881F991F5A95A9F78095F6
S11310709095BC01CD0108952F923F924F925F92BB
S11310806F927F928F929F92AF92BF92CF92DF9294
S1131090EF92FF920F931F93CF93DF93CDB7DEB7F9
S11310A0CA1BDB0B0FB6F894DEBF0FBECDBF09948D
S11310B02A88398848885F846E847D848C849B84E4
S11310C0AA84B984C884DF80EE80FD800C811B81F2
S11310D0AA81B981CE0FD11D0FB6F894DEBF0FBE21
S10D10E0CDBFED010895F894FFCF91
S11310EA72783A2025642028747970653D69432909
S11310FA0D0A0072783A20252E32662028747970F7
S113110A653D6654290D0A000D0A4853204D686D41
S113111A0D0A006E6F646549443D25640D0A006634
S113112A776420286164725372633D25642C2061BC
S113113A6472446573743D25642C74746C3D25642F
S113114A290D0A00747820286164725372633D255C
S113115A642C20616472446573743D25642C747430
S10D116A6C3D2564290D0A001000F5
S9030000FC
