:1000000014C076C62DC02CC02BC02AC029C028C061
:1000100027C026C025C089C849C822C021C020C029
:100020001FC01EC01DC00D0A000011241FBECFE559
:10003000D4E0DEBFCDBF13E0A0E6B0E0ECE6FBE12C
:1000400002C005900D92AE31B107D9F714E0AEE1D0
:10005000B3E001C01D92A930B107E1F704D884CD07
:10006000CFCFFC0139969C01215F3F4F87E69191EC
:100070008927E217F307D9F7089540911E03FC0181
:10008000349620E030E019C0541791F467FF22C085
:10009000F9013496E80FF91F04C02F5F3F4F8181AB
:1000A000819322303105B4F480818823B1F712C0E6
:1000B0002F5F3F4F2330310519F05191552321F720
:1000C000161654F4233031054CF4820F931FFC01B3
:1000D000448302C081E0089580E008958FEF089581
:1000E00081B3806681BBBF9A979A109228033CD750
:1000F00080E008958F929F92AF92BF92CF92DF924D
:10010000EF92FF920F931F93DF93CF9300D000D015
:100110000F92CDB7DEB719821A821B821C821D8214
:10012000882309F49DC080E690E0ABD86E01089466
:10013000C11CD11C0DEC12E021E0A22E21E0B22E58
:1001400093E0E92EF12CEC0EFD1E83EE882E80E06C
:10015000982EC60165E04DD98981883509F479C0AA
:10016000893540F48834A1F08E3409F1873409F0E0
:1001700073C03DC0883661F0893620F4873609F0B7
:100180006BC035C08E3699F0883709F065C061C004
:100190008A818F33F1F682E790E073D88FE890E0A0
:1001A00070D889EC90E06DD88EED90E057C08A81D0
:1001B0008D3321F08F3309F049C008C0C7017FD9C2
:1001C000682F80931E0380E090E0C6DB00D000D053
:1001D00000D0EDB7FEB73196ADB7BEB712961C93FF
:1001E0000E9311979382828280911E0322C08A818E
:1001F0008D3319F08F3351F50CC0C70160D961E020
:10020000181619060CF060E060931F0381E090E07F
:10021000A3DB00D000D000D0EDB7FEB73196ADB76C
:10022000BEB712961C930E931197B382A28280914F
:100230001F038483158290D98DB79EB706960FB69B
:10024000F8949EBF0FBE8DBFC80108C082EF90E03A
:1002500005C083E191E03DC08AE291E012D879CFF8
:1002600080E090E071DB80931E0381E090E06CDB26
:1002700080931F038F3F31F410921F0381E090E0C1
:1002800060E06ADBADB7BEB718970FB6F894BEBF93
:100290000FBEADBFEDB7FEB731960DEC12E0129672
:1002A0001C930E9311978AE391E09383828380914C
:1002B0001E038483158280911F03868317824CD985
:1002C0008DB79EB708960FB6F8949EBF0FBE8DBF30
:1002D000C801D7D780E00F900F900F900F900F902C
:1002E000CF91DF911F910F91FF90EF90DF90CF9012
:1002F000BF90AF909F908F90089581E090911F03E1
:10030000992309F480E008952F923F924F925F92D3
:100310006F927F928F929F92AF92BF92CF92DF9215
:10032000EF92FF920F931F93CF93DF93E0919E0381
:10033000F0919F038081823009F06AC2969A88E822
:1003400093E190932F0380932E03A180BB243496D6
:10035000F0932703E0932603CDECD2E093E3892EBC
:1003600092E0992E83E0682E712C09EC402E01E07A
:10037000502E18E8212E13E1312E44C2009126039D
:1003800010912703D8011F96EC90C8016ADEE81689
:1003900009F011C2F801818592858230910559F1E9
:1003A0008330910509F452C08130910509F07DC078
:1003B0002DB73EB7285030400FB6F8943EBF0FBE61
:1003C0002DBFEDB7FEB73196ADB7BEB71296DC9331
:1003D000CE9311972DE531E033832283D8011B960C
:1003E0008D919C911C979583848311968C91119784
:1003F0008683178250C02DB73EB7285030400FB6C5
:10040000F8943EBF0FBE2DBF2F5F3F4FADB7BEB7B5
:100410001296DC93CE9311978BE791E0F9019383C9
:100420008283F80183859485A585B685F901848347
:100430009583A683B78390D82DB73EB7285F3F4FEB
:100440000FB6F8943EBF0FBE2DBF4AC0D8018C91A5
:1004500081FF03C080E290E002C08EE690E0EDB73D
:10046000FEB738970FB6F894FEBF0FBEEDBF3196BA
:10047000ADB7BEB71296DC93CE9311972EE831E05C
:100480003383228395838483D8011B968D919C911D
:100490001C979783868360D8EDB7FEB738960FB662
:1004A000F894FEBF0FBEEDBF1BC000D000D000D03F
:1004B000EDB7FEB73196ADB7BEB71296DC93CE93CB
:1004C000119725EA31E0338322839583848344D8CE
:1004D0008DB79EB706960FB6F8949EBF0FBE8DBF20
:1004E000CE01CFD60091260310912703E0901E0382
:1004F000D80113968C9113978E1541F0FEDE882358
:1005000009F4C8C0F801828180FFC4C0D8014C91B1
:10051000242F30E0C90186709070009709F45AC00A
:1005200080912003909121038230910539F49091BC
:10053000800318968C911897981799F08091220350
:10054000909123038230910509F058C19091900356
:10055000F8018085981709F051C1B1E0EB2EF12C1C
:1005600002C0EE24FF2421FD03C088E591E002C013
:1005700084E591E02DB73EB7285030400FB6F8948F
:100580003EBF0FBE2DBFEDB7FEB73196ADB7BEB7BC
:100590001296DC93CE93119729EB31E033832283BB
:1005A00095838483D80118968C9186831782D4D73B
:1005B000EDB7FEB738960FB6F894FEBF0FBEEDBF8D
:1005C000CE015FD6F701EE0FFF1FE05EFC4F1182F8
:1005D000108214C1D80111968C91119713968C93A7
:1005E00013971196EC921197417012964C931297B3
:1005F00081E090911F03992309F480E08260F80163
:1006000080837286618614861386C8012ADDD8012C
:100610001F968C931F97E5E01796EC93EFD48823F1
:1006200009F0ECC02DB73EB72A5030400FB6F89411
:100630003EBF0FBE2DBFEDB7FEB73196ADB7BEB70B
:100640001296DC93CE93119753824282D801119671
:100650008C9111978483158213968C9113978683BE
:10066000178217968C918087118676D7EDB7FEB7E3
:100670003A960FB6F894FEBF0FBEEDBFCE0101D67D
:1006800080E160E0A80135D4959A30923103209240
:100690003003B4C0D80117968C91179781501796E4
:1006A0008C931797882309F4A9C08C91867039F030
:1006B000C8016FEFE2DC18160CF477C19FC0C801C7
:1006C00061E0DBDC882309F470C198C0EDB7FEB7A8
:1006D0003C970FB6F894FEBF0FBEEDBF3196ADB795
:1006E000BEB71296DC93CE9311972FEE31E0338391
:1006F000228381E192E095838483D80111968C91C5
:1007000011978683178213968C9113978087118691
:1007100017968C91828713861FD7EDB7FEB73C964C
:100720000FB6F894FEBF0FBEEDBFCE01AAD5E4E030
:10073000CE2ED12CC00ED11EEE24FF242CC02DB7FE
:100740003EB7285030400FB6F8943EBF0FBE2DBFC5
:10075000EDB7FEB73196ADB7BEB71296DC93CE9328
:10076000119725E132E033832283E482F582868388
:100770001782F2D68DB79EB708960FB6F8949EBF33
:100780000FBE8DBFCE017DD50894E11CF11C93E016
:10079000E916F10429F0D6018D916D01882379F6CF
:1007A00083E292E06ED580E160E0A801A2D326C08A
:1007B00087E292E022C0EDB7FEB738970FB6F89403
:1007C000FEBF0FBEEDBF3196ADB7BEB71296DC933C
:1007D000CE93119793828282D80118968C9184834C
:1007E0001582E6821782B8D6EDB7FEB738960FB6F7
:1007F000F894FEBF0FBEEDBFCE0143D520EF3FEF13
:10080000A20EB31E30E1A316B10408F0B7CD8CD30D
:1008100080912A0390912B03009749F080912A033D
:1008200090912B03019790932B0380932A0380913F
:100830002A0390912B03009709F07EC080912C032E
:1008400090912D0380912C0390912D03019790930B
:100850002D0380932C0380912C0390912D030097FE
:1008600009F06AC080E29EE490932B0380932A03F0
:1008700090932D0380932C0300E213E070E8E72EA1
:1008800073E0F72EC4E2D3E068EFA62E6FEFB62E2A
:10089000AE0CBF1C5DECC52E52E0D52E44E7842E75
:1008A00042E0942E34E5632E32E0732ED8018D9110
:1008B0009C9111978230910581F58881833008F0F1
:1008C00079C09CD3882349F588818F5F8883EDB7F1
:1008D000FEB738970FB6F894FEBF0FBEEDBF319646
:1008E000ADB7BEB71296DC92CE9211977382628238
:1008F000D7019C9194831582868317822DD6EDB7FC
:10090000FEB738960FB6F894FEBF0FBEEDBFC60116
:10091000B8D480E160E0A501ECD20E5F1F4F20E16A
:1009200030E0E20EF31E21960894A11CB11C33E0C6
:100930000432130709F0BACF8BD280912E03909125
:100940002F03009729F0019790932F0380932E0394
:1009500080912E0390912F03009709F4969880912F
:10096000300390913103009729F001979093310360
:10097000809330038091300390913103009709F404
:10098000959881E0DF91CF911F910F91FF90EF90AB
:10099000DF90CF90BF90AF909F908F907F906F909F
:1009A0005F904F903F902F90089528D3882309F4AB
:1009B0008DCEFECE00D000D000D0EDB7FEB7319680
:1009C000ADB7BEB71296DC92CE9211979382828217
:1009D000D7018C9184831582BFD5EDB7FEB73696CB
:1009E0000FB6F894FEBF0FBEEDBFC6014AD4D801C2
:1009F00011961C921E92188290CF20912803E22F0C
:100A0000F0E0EE0FFF1FE05EFC4F808191810097C8
:100A1000A9F02F5F217020932803E22FF0E0EE0F62
:100A2000FF1FE05EFC4F80819181009739F02F5FBE
:100A300021702093280320E030E013C02091280388
:100A400030E0F901EE0FFF1FE05EFC4F81E090E027
:100A50009183808344E0220F331F4A95E1F72D579D
:100A60003C4FC9010895AF92BF92CF92DF92EF92AF
:100A7000FF920F931F93DF93CF930F92CDB7DEB703
:100A80007C016B0180912803A82EBB24B7D2882358
:100A900011F420E001C022E0850194E0000F111F55
:100AA0009A95E1F7C8018D579C4FE816F90609F0B1
:100AB000BFC0222309F0BDC008581C4F90911F03EE
:100AC00081E0992309F480E0D8018C93F50184E05A
:100AD000EE0FFF1F8A95E1F7E858FC4F80911E0347
:100AE000818381E0911180E082837501B4E0EE0C96
:100AF000FF1CBA95E1F7E8E7F3E0EE0EFF1ED70121
:100B000013961C92139785E017968C9317978091F4
:100B100029038F5F8093290318968C9318971A9650
:100B2000DC92CE921997C8019CDAF701878780E1A1
:100B300060E0A801DED1282F0DEC12E0803809F02A
:100B400057C08DB79EB70C970FB6F8949EBF0FBED7
:100B50008DBFEDB7FEB73196ADB7BEB712961C93F9
:100B60000E9311978FE892E093838283D7011196B9
:100B70008C9111978483158213968C911397868399
:100B8000178217968C9117978087118618968C91EB
:100B9000828713862983E0D4EDB7FEB73C960FB663
:100BA000F894FEBF0FBEEDBFC8016BD38091280340
:100BB00090E0FC01EE0FFF1FE05EFC4F42E050E0D2
:100BC000518340838C5D9C4FDC011C9280E29EE44B
:100BD00090932B0380932A0390932D0380932C03EF
:100BE000959A88E893E190933103809330031EC077
:100BF00000D000D000D0EDB7FEB73196ADB7BEB78C
:100C000012961C930E9311978EEB92E0938382833E
:100C1000248315822983A0D4EDB7FEB736960FB68C
:100C2000F894FEBF0FBEEDBFC8012BD3298101C0D0
:100C300021E0822F0F90CF91DF911F910F91FF90B4
:100C4000EF90DF90CF90BF90AF9008954091280330
:100C500050E09A0164E0220F331F6A95E1F72D57A7
:100C60003C4F2817390739F4FA01EE0FFF1FE05EF9
:100C7000FC4F118210820895C2989FB9779BFECFD6
:100C80008FB9779BFECFC29A0895C2989FB9779B80
:100C9000FECF9FB1592F40E08FB9779BFECF2FB188
:100CA000C29A30E0242B352BC9010895C2981FB891
:100CB000779BFECFC29A8FB10895C2988FB9779B68
:100CC000FECF6FB9779BFECFC29A0895C29880EB92
:100CD0008FB9779BFECF1FB8779BFECFC29A8FB19B
:100CE0000895BB9ABD9ABA9ABC9881E58DB90895CA
:100CF00078941F920F920FB60F9211241F932F9387
:100D00003F934F935F936F937F938F939F93AF9393
:100D1000BF93EF93FF938BB78F7B8BBFC7DF87FFAB
:100D200082C0809198038130E1F0813020F08230E0
:100D300009F071C058C011E010939B03C7DF809386
:100D40003203982F9D5F90939A03E0919C03F0915A
:100D50009D039081992309F05EC0109398038183CD
:100D600062C090919B0380919A039817D8F4AEDFEC
:100D70009091320398279093320320919B03213264
:100D800038F4E0919C03F0919D03E20FF11D818303
:100D900080919B03823011F49F3FE9F58F5F809330
:100DA0009B0341C0E0919C03F0919D0382E080830E
:100DB0008091A00390E00196817090708093A003D1
:100DC000282F30E0C901880F991F45E0220F331FFB
:100DD0004A95E1F7820F931F8E559C4F90939D0388
:100DE00080939C0318C080919B0390919A0389176C
:100DF00050F4E82FF0E0EA51FC4F60818F5F809360
:100E00009B0388EB0FC01092990381E892E834DFCE
:100E100088EB6AEA52DF109298038AEC61E84DDFB2
:100E20008AEC63E84ADF8BB780648BBFFF91EF9158
:100E3000BF91AF919F918F917F916F915F914F91F2
:100E40003F912F911F910F900FBE0F901F901895FB
:100E5000809198038823C9F58BB78F7B8BBF80E087
:100E600090E013DF2BB720642BBF90FF04C088EC09
:100E70008093FF0208958091FF0281508093FF02CA
:100E8000882319F581E08093FF02809199038130D6
:100E9000E1F48BB78F7B8BBF81E092E8EDDE809130
:100EA000E8038A5F80939A0310929B0382E0809309
:100EB00098038AEA98EBE0DE8AEA98EBDDDE81E2CD
:100EC00092E8DADE8BB780648BBF08959091990326
:100ED000992369F46093E8038093E903862780955A
:100EE0008093EA0381E08093990380E8089583E08A
:100EF00008950F931F93182F062F8F3178F4809148
:100F00009903882369F42BEE33E0C901BA01412F1C
:100F100050E0F2D2802F612FD9DF03C082E001C000
:100F200083E01F910F910895E0919E03F0919F033C
:100F300010828091A10390E001968170907080935F
:100F4000A103282F30E0C901880F991F65E0220F07
:100F5000331F6A95E1F7820F931F8E559C4F909334
:100F60009F0380939E030895C29ABA9ABADE87EDD2
:100F700090E882DE81E092E87FDE80EB94EA7CDE1E
:100F800083E296EC79DE8CE294E976DE8BEA92ECF1
:100F900073DE81E89AEC70DE87EF94EC6DDE80E71B
:100FA00098E96ADE80E098EC67DE80E090EE64DE2F
:100FB0008DE28093E60384ED8093E70382EA93E079
:100FC00090939F0380939E0390939D0380939C0333
:100FD00081E892E851DE85B7826085BF80E090E0CD
:100FE00054DE8AB780648ABF81E89AEC45DE83E8E4
:100FF0009AEC42DE8BB780648BBF08958091990391
:101000000895FC01209133032F5F2093330381E087
:1010100090E0DB0111969C938E932083118281E0F6
:10102000089520911C0330911D032230310530F0CA
:1010300010921D0310921C0381E0089580911A0301
:1010400090911B03019690931B0380931A030097C2
:1010500041F42F5F3F4F30931D0320931C0380E02A
:10106000089580E00895B9983BD8A2D0789480E0A4
:1010700093E007D186B382703DD88BE093E001D135
:10108000D0DF882389F039D9882371F4B6DC009742
:1010900059F0209133032F5F20933303FC01208309
:1010A000118261E070E0DFDC2FD9EACF1F920F924E
:1010B0000FB60F9211242F933F938F939F93EF932B
:1010C000FF93209142033091430380914403909118
:1010D00045032817390711F455981CC0E0914403C3
:1010E000F091450380818CB9809144039091450330
:1010F000019690934503809344038091440390911B
:10110000450323E08837920729F4C297909345035B
:1011100080934403FF91EF919F918F913F912F9185
:101120000F900FBE0F901F9018951F920F920FB641
:101130000F9211242F933F938F939F93EF93FF93DD
:101140008091340390913503209136033091370319
:10115000821B930B97FD0A9689309105ECF4E09180
:101160003403F09135038CB18083809134039091E6
:1011700035030196909335038093340380913403B3
:101180009091350323E08234920739F40A979093C3
:1011900035038093340301C08CB1FF91EF919F918F
:1011A0008F913F912F910F900FBE0F901F90189528
:1011B000539A80B5866880BD549A10BC86E289B97E
:1011C00088E393E09093370380933603809136034E
:1011D00090913703909335038093340386E493E032
:1011E0009093450380934403809144039091450379
:1011F0009093430380934203579A0895DF93CF93CC
:1012000000D0CDB7DEB72091420330914303409127
:10121000440350914503241B350B3A8329832981CC
:101220003A8137FF06C029813A812E5C3F4F3A83CD
:10123000298329813A81213331052CF7F894E091F3
:101240004203F091430380838091420390914303D2
:1012500001969093430380934203809142039091BF
:10126000430323E08837920729F4C29790934303FE
:1012700080934203559A78940F900F90CF91DF910D
:101280000895EF92FF92CF93DF93E82EE7017E015E
:10129000F92EE70101C0B2DF89918823E1F7DF91E0
:1012A000CF91FF90EF900895CF93DF93EC0102C0B0
:1012B000A5DF2196FE0184918823D1F7DF91CF919C
:1012C0000895BF92CF92DF92EF92FF920F931F93F8
:1012D000DF93CF9300D00F92CDB7DEB76C01062F0E
:1012E000172FBB247E010894E11CF11C1BC0F601E2
:1012F00081916F0190E0B70140E150E006D18A8111
:10130000882311F480E27ADFC701BBDF80E276DF59
:10131000B394FB2DF03121F486E290E0C5DFBB24CD
:10132000015010400115110511F70F900F900F900B
:10133000CF91DF911F910F91FF90EF90DF90CF90B1
:10134000BF90089520913403309135038091360386
:101350009091370328173907A9F3E0913603F091EC
:101360003703808120913603309137032F5F3F4F41
:10137000309337032093360320913603309137039F
:1013800093E02234390731F42A5030403093370348
:1013900020933603089540913403509135032091F2
:1013A00036033091370342175307F9F0E0913603C3
:1013B000F09137032081FC012083809136039091C6
:1013C0003703019690933703809336038091360359
:1013D00090913703F3E082349F0749F40A97909382
:1013E00037038093360381E0089580E0089581E01B
:1013F0000895CF92DF92FF920F931F93DF93CF93C5
:101400000F92CDB7DEB76C01FC0110828C0104C0D5
:10141000F80181938F016150F02EFC18698392DFEF
:101420006981882321F08D3011F0662389F7F80156
:10143000E60FF11D319710828F2D0F90CF91DF9124
:101440001F910F91FF90DF90CF900895CF92DF9280
:10145000FF920F931F93CF93DF938C01FC011082B7
:10146000EC01FC2ECE0197DF882319F089918D3095
:10147000C1F78F2D801BDF91CF911F910F91FF90AE
:10148000DF90CF9008950F931F93CF93DF93FB01CD
:101490002081EC01C20FD11D8E01CE017CDF88239B
:1014A00019F089918D30C1F781E0F80190819D306C
:1014B00009F080E0DF91CF911F910F910895FC0119
:1014C00088279927E89421912032E9F3293010F0F8
:1014D0002E30C8F32B3239F02D3231F4689403C02A
:1014E00033D0820F911D219120532A30C8F31EF46E
:1014F000909581959F4F0895FB01DC0102C00190FA
:101500000D9241505040D8F70895FB019F01E89497
:101510004230BCF04532ACF44A3029F497FB1EF45B
:10152000909581959F4F642F7727D3D2805D8A3322
:101530000CF0895D8193CB010097A9F716F45DE269
:1015400051931082C9012BC27AE0979F902D879FFB
:10155000802D910D11240895AEE0B0E0E1EBFAE0AA
:10156000DAC20D891E8986E08C831A8309838FEF86
:101570009FE79E838D839E01275E3F4FCE0101969C
:101580006F89788DA90108D0EF81F885E00FF11FF0
:1015900010822E96E4E0DBC2ACE0B0E0E1EDFAE0D0
:1015A000ACC26C011B018A01FC0117821682838187
:1015B00081FFC4C12E010894411C511CF601938186
:1015C000F10193FD859193FF81911F01882309F417
:1015D000B1C1853239F493FD859193FF81911F014B
:1015E000853221F490E0B601EAD1E8CFEE24FF2461
:1015F00020E02032B0F48B3269F08C3228F4803253
:1016000051F0833271F40BC08D3239F0803349F4DC
:1016100021602CC02260246029C0286027C020617E
:1016200025C027FD2CC0382F30533A3098F426FFC0
:1016300008C08E2D880FE82EEE0CEE0CE80EE30E9F
:1016400015C08F2D880FF82EFF0CFF0CF80EF30E2F
:1016500020620CC08E3221F426FD6CC1206406C0CD
:101660008C3611F4206802C0883649F4F10193FDEC
:10167000859193FF81911F01882309F0BACF982F9C
:101680009554933018F09052933028F40C5F1F4F0C
:10169000FFE3F9830DC0833631F0833771F0833572
:1016A00009F05CC021C0F801808189830E5F1F4F63
:1016B000420171E0A72EB12C15C062E0662E712C9C
:1016C000600E711EF8018080918026FF03C06E2D90
:1016D00070E002C06FEF7FEFC4012C8755D15C0131
:1016E00083012C852F7716C052E0652E712C600E79
:1016F000711EF8018080918026FF03C06E2D70E07E
:1017000002C06FEF7FEFC4012C8733D15C012C85C1
:101710002068830123FD1EC007C080E290E0B6016F
:101720002C874DD1FA942C858F2D90E0A816B90600
:10173000A0F310C0F40127FD859127FF81914F018F
:1017400090E0B6012C873BD12C85F110FA940894D7
:10175000A108B108A114B10469F7E9C0843611F0F9
:10176000893641F527FF08C0F801608171818281C7
:1017700093810C5F1F4F09C0F80160817181882738
:1017800077FD8095982F0E5F1F4F4FE6B42EB22243
:1017900097FF09C090958095709561957F4F8F4F09
:1017A0009F4FF0E8BF2AA2012AE030E034D1782E22
:1017B000741844C0853731F43FEEB32EB2222AE0CC
:1017C00030E025C099EFB92EB2228F36C1F08037B4
:1017D00020F4883509F0AEC00DC0803721F088377D
:1017E00009F0A8C002C020E1B22AB4FE0BC084E018
:1017F000B82A08C0B4FE09C0E6E0BE2A06C028E048
:1018000030E005C020E130E002C020E132E0B7FE68
:1018100008C0F80160817181828193810C5F1F4F44
:1018200007C0F8016081718180E090E00E5F1F4F7A
:10183000A201F1D0782E7418FFE7BF22B6FE0BC0CC
:101840002EEFB2227E1438F4B4FE07C0B2FC05C0FD
:101850008FEEB82202C0A72C01C0AE2C8B2D90E0D9
:10186000B4FE0DC0FE01E70DF11D2081203319F4F7
:10187000E9EEBE2209C0A394B2FE06C004C0867879
:101880009070009709F0A3948B2C9924B3FC13C09B
:10189000B0FE0EC0AF1428F4E72CEF0CEA18AF2C02
:1018A00007C0E72C05C080E290E0B60188D0A39481
:1018B000AF14C8F304C0AF1410F4FA1801C0FF2429
:1018C00084FE0EC080E390E0B60179D082FE1DC098
:1018D00081FE03C088E590E010C088E790E00DC06D
:1018E000C40186789070009781F081FC02C080E28C
:1018F00001C08BE2B7FC8DE290E0B60160D005C07C
:1019000080E390E0B6015BD0EA947E14C8F37A9449
:10191000F201E70DF11D808190E0B60150D07720F3
:10192000B1F705C080E290E0B60149D0FA94FF20FB
:10193000C9F744CEF6012681378102C02FEF3FEF71
:10194000C9012C96E2E1F5C0E199FECF9FBB8EBBA9
:10195000E09A99278DB30895262FE199FECF9FBB7A
:101960008EBB2DBB0FB6F894E29AE19A0FBE01969A
:101970000895FC010590615070400110D8F78095E2
:1019800090958E0F9F1F0895FC016150704001904B
:101990000110D8F7809590958E0F9F1F0895DC0158
:1019A000FC01672F71917723E1F7329704C07C9196
:1019B0006D9370836291AE17BF07C8F308950F93BC
:1019C0001F93CF93DF938C01EB018B8181FF1BC0B1
:1019D00082FF0DC02E813F818C819D8128173907A0
:1019E00064F4E881F9810193F983E88306C0E8850E
:1019F000F985802F0995009731F48E819F8101969A
:101A00009F838E8302C00FEF1FEFC801DF91CF913C
:101A10001F910F910895FA01AA27283051F1203122
:101A200081F1E8946F936E7F6E5F7F4F8F4F9F4F72
:101A3000AF4FB1E03ED0B4E03CD0670F781F891FB4
:101A40009A1FA11D680F791F8A1F911DA11D6A0F82
:101A5000711D811D911DA11D20D009F468943F9135
:101A60002AE0269F11243019305D3193DEF6CF0134
:101A70000895462F4770405D4193B3E00FD0C9F7FA
:101A8000F6CF462F4F70405D4A3318F0495D31FD67
:101A90004052419302D0A9F7EACFB4E0A6959795BA
:101AA000879577956795BA95C9F700976105710590
:101AB00008959B01AC010A2E0694579547953795DA
:101AC0002795BA95C9F7620F731F841F951FA01D34
:101AD0000895AA1BBB1B51E107C0AA1FBB1FA61775
:101AE000B70710F0A61BB70B881F991F5A95A9F7C7
:101AF00080959095BC01CD0108952F923F924F9211
:101B00005F926F927F928F929F92AF92BF92CF928D
:101B1000DF92EF92FF920F931F93CF93DF93CDB796
:101B2000DEB7CA1BDB0B0FB6F894DEBF0FBECDBF0E
:101B300009942A88398848885F846E847D848C84DF
:101B40009B84AA84B984C884DF80EE80FD800C81E8
:101B50001B81AA81B981CE0FD11D0FB6F894DEBFCB
:0C1B60000FBECDBFED010895F894FFCF3B
:101B6C0073657276696365206D6F6465204F4B0DEC
:101B7C000A00466F726D61743A093C434D443E3C19
:101B8C004F503E5B3C56414C55453E5D0D0A003C6A
:101B9C00434D443E093D20683D68656C702C206EB9
:101BAC003D6E6F646549642C20673D676174657791
:101BBC0061792C206C3D6C6F674C6576656C2C20C4
:101BCC00783D657869740D0A003C56414C55453E8C
:101BDC00093D206F70742E576572740D0A004F4BBF
:101BEC000D0A006E6F646549443D2564204F4B0D12
:101BFC000A006F7020696E76204552524F520D0AC2
:101C0C00006973476174657761793D2564204F4B9A
:101C1C000D0A0073657276696365206D6F646520CB
:101C2C0065786974204F4B0D0A00636D6420696EF2
:101C3C0076204552524F520D0A006E6F646549442E
:101C4C003D25642C206973476174657761793D2566
:101C5C00640D0A0061636B006E61636B0072783A0D
:101C6C0020256420286164725372633D25642C2006
:101C7C00747970653D6943290D0A0072783A202504
:101C8C00672028747970653D6654290D0A007278B6
:101C9C003A20256361636B20286572726F723D2553
:101CAC0064290D0A0072783A202D3F2D2028747972
:101CBC0070653D2564290D0A002573202873657114
:101CCC004E723D2564290D0A0061636B2028616406
:101CDC00725372633D25642C206164724465737485
:101CEC003D25642C2074746C3D2564290D0A002557
:101CFC007320286164725372633D25642C206164E7
:101D0C0072446573743D25642C2074746C3D256499
:101D1C0000667764002C20706174685B25645D3DFF
:101D2C00256400290D0A00667764206572726F7253
:101D3C000D0A0072782077726F6E6720435320284B
:101D4C007365714E723D25642C2073756D3D256451
:101D5C00290D0A00747820726574727920287365D5
:101D6C00714E723D25642C2072657472793D256428
:101D7C00290D0A006572726F723A206E6F206163D2
:101D8C006B20287365714E723D2564290D0A007411
:101D9C007820286164725372633D25642C20616441
:101DAC0072446573743D25642C2074746C3D2564F9
:101DBC002C207365714E723D2564290D0A007478D0
:101DCC00206572726F7220282564290002000000C1
:101DDC0000000000000000000000000000000000F7
:101DEC0000000000000000000000000000000000E7
:101DFC0000000000000000000000000000000010C7
:101E0C000D0A4853204D686D0D0A000D0A72756E4F
:0E1E1C006E696E67202E2E0D0A000000020077
:00000001FF
