:1000000014C04DC32DC02CC02BC02AC029C028C08D
:1000100027C026C025C035C5F5C422C021C020C0D8
:100020001FC01EC01DC00D0A000011241FBECFE559
:10003000D4E0DEBFCDBF12E0A0E6B0E0E4E0F5E141
:1000400002C005900D92A23DB107D9F714E0A2EDD0
:10005000B2E001C01D92AA35B107E1F7B3D450CA8E
:10006000CFCF0F931F93DF93CF93CDB7DEB7C45697
:10007000D0400FB6F894DEBF0FBECDBFFC01828525
:10008000813021F0823009F05AC027C000D000D062
:1000900000D02DB73EB72F5F3F4F8E010F5F1F4F30
:1000A000ADB7BEB712961C930E93119780E690E001
:1000B000D90113969C938E931297838594851596F8
:1000C0009C938E93149728D7EDB7FEB736960FB64C
:1000D000F894FEBF0FBEEDBF2EC08DB79EB7089738
:1000E0000FB6F8949EBF0FBE8DBF2DB73EB72F5FE2
:1000F0003F4F8E010F5F1F4FADB7BEB712961C93D7
:100100000E93119783E790E0D90113969C938E93F9
:10011000129783859485A585B685F9018483958397
:10012000A683B783F9D68DB79EB708960FB6F89415
:100130009EBF0FBE8DBFC80151D581E001C080E0D8
:10014000CC59DF4F0FB6F894DEBF0FBECDBFCF91B5
:10015000DF911F910F91089581B3806681BBBF9A93
:10016000979AD9D386E9E9E4F3E0DF011D928A95F5
:10017000E9F78FED93E061E070E04AE050E09ED651
:1001800080E008956F927F928F929F92AF92BF927C
:10019000CF92DF92EF92FF920F931F93DF93CF9353
:1001A000CDB7DEB7C456D0400FB6F894DEBF0FBE51
:1001B000CDBF19821A821B821C82FE01359690E601
:1001C000DF011D929A95E9F7882309F4BCC088E8FD
:1001D00090E004D54E010894811C911C33E0E32E7D
:1001E000F12CEC0EFD1E06EC11E02FE2C22E21E0F8
:1001F000D22E9FEF692E712C87E0A82E81E0B82EB9
:10020000C40164E6A3D58981883509F495C0893590
:1002100040F48834A1F08E3409F1873409F08FC09E
:1002200053C0883661F0893620F4873609F087C0DC
:100230004BC08E3699F0883709F081C07DC08A8125
:100240008F33F1F68AE990E0C9D484EC90E0C6D40B
:1002500088EE90E0C3D484E091E073C08A818D334E
:1002600021F08F3309F065C01BC0C70101D6B3016F
:10027000D8D5682F8093D20280E090E04DD800D08E
:1002800000D000D0EDB7FEB73196ADB7BEB712962D
:100290001C930E931197B382A2828091D2023CC02C
:1002A00080E090E031D88093D20200D000D000D01E
:1002B000EDB7FEB73196ADB7BEB712961C930E934D
:1002C0001197B382A28228C08A818D3319F08F33AF
:1002D00081F50DC0C701CCD561E0181619060CF0E8
:1002E00060E06093D30281E090E016D805C081E021
:1002F00090E00AD88093D20200D000D000D0EDB7B1
:10030000FEB73196ADB7BEB712961C930E931197F8
:10031000D382C2828091D30284831582FDD58DB7AA
:100320009EB706960FB6F8949EBF0FBE8DBFC8014C
:1003300008C086E191E005C081E491E027C088E52E
:1003400091E04CD45DCF80E090E0DED78093D20284
:1003500000D000D000D0EDB7FEB7319606EC11E02A
:10036000ADB7BEB712961C930E93119720E731E0FC
:100370003383228384831582CFD58DB79EB70696AB
:100380000FB6F8949EBF0FBE8DBFC80127D480E082
:10039000CC59DF4F0FB6F894DEBF0FBECDBFCF9163
:1003A000DF911F910F91FF90EF90DF90CF90BF9062
:1003B000AF909F908F907F906F900895CF92DF9233
:1003C000EF92FF920F931F93CF93DF93E091EF0390
:1003D000F091F0038081823009F062C0969A80E14A
:1003E00097E29093D8028093D7028181C82EDD24B2
:1003F0003496F093D502E093D40206EC11E04CE77A
:10040000E42E41E0F42E46C08091D4029091D502B2
:1004100028DEA091D402B091D50219968C9119973B
:10042000815019968C931997882381F12DB73EB787
:100430002A5030400FB6F8943EBF0FBE2DBFEDB727
:10044000FEB73196CDB7DEB71A830983F382E28215
:1004500011969C9111979483158213969C91968383
:1004600017828087118658D52DB73EB7265F3F4F3C
:100470000FB6F8943EBF0FBE2DBFC801AFD3409159
:10048000D4025091D5028FE060E00AD281EF9FEF55
:10049000C80ED91E9FE0C916D10408F0B5CF1BD2F3
:1004A000AED18091D7029091D802009729F00197A0
:1004B0009093D8028093D7028091D7029091D8026E
:1004C000009709F496988091D9029091DA020097EA
:1004D00029F001979093DA028093D9028091D90292
:1004E0009091DA02009709F4959881E0DF91CF911D
:1004F0001F910F91FF90EF90DF90CF900895909112
:10050000D60220E030E0AAE0492F50E0FA01E152A3
:10051000FC4F80818130C9F49093D60282E08083C1
:100520002FE0929FC0011124875B9C4FDC011D923C
:100530002A95E9F79A0164E0220F331F6A95E1F7E3
:10054000241B350B2C5A3C4F0DC0892F8F5F6A2F0F
:100550005CD42F5F3F4F2A303105B1F69093D6021D
:1005600020E030E0C90108950F931F93CF93DF93EC
:100570002091D60230E0E90174E0CC0FDD1F7A95BE
:10058000E1F7C21BD30B9E012C5A3C4F28173907A9
:1005900009F043C0C75BDC4F18828091D202898387
:1005A0001A821B8285E089878DB79EB70A970FB69E
:1005B000F8949EBF0FBE8DBFEDB7FEB7319606EC27
:1005C00011E0ADB7BEB712961C930E93119782EA55
:1005D00091E0938382838981848315828B818683D2
:1005E000178285E090E09187808796D48DB79EB77B
:1005F0000A960FB6F8949EBF0FBE8DBFC801EED20B
:100600008FE060E0AE014CD1959A80E197E2909343
:10061000DA028093D90280E001C081E0DF91CF91BE
:100620001F910F910895C2989FB9779BFECF8FB904
:10063000779BFECFC29A0895C2989FB9779BFECF51
:100640009FB1592F40E08FB9779BFECF2FB1C29A4F
:1006500030E0242B352BC9010895C2981FB8779B31
:10066000FECFC29A8FB10895C2988FB9779BFECF03
:100670006FB9779BFECFC29A0895C29880EB8FB96D
:10068000779BFECF1FB8779BFECFC29A8FB108959C
:10069000BB9ABD9ABA9ABC9881E58DB908957894B1
:1006A0001F920F920FB60F9211241F932F933F9317
:1006B0004F935F936F937F938F939F93AF93BF936A
:1006C000EF93FF938BB78F7B8BBFC7DF87FF82C012
:1006D0008091E9038130E1F0813020F0823009F02F
:1006E00071C058C011E01093EC03C7DF8093DB02A8
:1006F000982F9D5F9093EB03E091ED03F091EE0353
:100700009081992309F05EC01093E903818362C050
:100710009091EC038091EB039817D8F4AEDF9091A1
:10072000DB0298279093DB022091EC03213238F40E
:10073000E091ED03F091EE03E20FF11D81838091D2
:10074000EC03823011F49F3FE9F58F5F8093EC0357
:1007500041C0E091ED03F091EE0382E0808380914F
:10076000F10390E00196817090708093F103282F3F
:1007700030E0C901880F991F45E0220F331F4A95C9
:10078000E1F7820F931F8D509C4F9093EE0380935F
:10079000ED0318C08091EC039091EB03891750F49E
:1007A000E82FF0E0E95CFB4F60818F5F8093EC0302
:1007B00088EB0FC01092EA0381E892E834DF88EBFF
:1007C0006AEA52DF1092E9038AEC61E84DDF8AECB5
:1007D00063E84ADF8BB780648BBFFF91EF91BF91D5
:1007E000AF919F918F917F916F915F914F913F91C9
:1007F0002F911F910F900FBE0F901F901895809111
:10080000E9038823C9F58BB78F7B8BBF80E090E02D
:1008100013DF2BB720642BBF90FF04C088EC8093BC
:10082000C50208958091C50281508093C502882336
:1008300019F581E08093C5028091EA038130E1F4EB
:100840008BB78F7B8BBF81E092E8EDDE809139041E
:100850008A5F8093EB031092EC0382E08093E903BC
:100860008AEA98EBE0DE8AEA98EBDDDE81E292E844
:10087000DADE8BB780648BBF08959091EA039923E9
:1008800069F46093390480933A04862780958093B5
:100890003B0481E08093EA0380E8089583E00895B3
:1008A0000F931F93182F062F8F3178F48091EA034E
:1008B000882369F42CE334E0C901BA01412F50E0E8
:1008C000F4D2802F612FD9DF03C082E001C083E022
:1008D0001F910F910895E091EF03F091F0031082C2
:1008E0008091F20390E00196817090708093F20302
:1008F000282F30E0C901880F991F65E0220F331FB0
:100900006A95E1F7820F931F8D509C4F9093F003EF
:100910008093EF030895C29ABA9ABADE87ED90E801
:1009200082DE81E092E87FDE80EB94EA7CDE83E287
:1009300096EC79DE8CE294E976DE8BEA92EC73DE5B
:1009400081E89AEC70DE87EF94EC6DDE80E798E941
:100950006ADE80E098EC67DE80E090EE64DE8DE297
:100960008093370484ED8093380483EF93E0909371
:10097000F0038093EF039093EE038093ED0381E8FF
:1009800092E851DE85B7826085BF80E090E054DE5A
:100990008AB780648ABF81E89AEC45DE83E89AECE6
:1009A00042DE8BB780648BBF0895FC018091DC022E
:1009B0008F5F8093DC0291E0DB019C938083118246
:1009C00080E00895CF93DF93B9989ED0C5DB7894EB
:1009D00086EC92E003D186B38270D4DBC0E0D0E035
:1009E0002196ECDC2097E1F78ADD0097C9F320918E
:1009F000DC022F5F2093DC02FC012083118261E086
:100A0000B3DDEECF1F920F920FB60F9211242F93EA
:100A10003F938F939F93EF93FF9320911303309114
:100A2000140380911503909116032817390711F4C8
:100A300055981CC0E0911503F091160380818CB984
:100A4000809115039091160301969093160380935D
:100A50001503809115039091160323E089349207C2
:100A600029F4C2979093160380931503FF91EF9199
:100A70009F918F913F912F910F900FBE0F901F90DC
:100A800018951F920F920FB60F9211242F933F9338
:100A90008F939F93EF93FF938091DD029091DE02FD
:100AA0002091DF023091E002821B930B97FDC296EA
:100AB00081339105ECF4E091DD02F091DE028CB11E
:100AC00080838091DD029091DE0201969093DE0298
:100AD0008093DD028091DD029091DE0223E083317C
:100AE000920739F4C2979093DE028093DD0201C031
:100AF0008CB1FF91EF919F918F913F912F910F902A
:100B00000FBE0F901F901895909A539A80B58668E3
:100B100080BD549A10BC86E289B981EE92E0909330
:100B2000E0028093DF028091DF029091E0029093D7
:100B3000DE028093DD0287E193E0909316038093B9
:100B400015038091150390911603909314038093DD
:100B50001303579A0895DF93CF9300D0CDB7DEB734
:100B60002091130330911403409115035091160303
:100B7000241B350B3A83298329813A8137FF06C02C
:100B800029813A812E5C3F4F3A83298329813A811A
:100B9000213331052CF7F894E0911303F0911403FD
:100BA0008083809113039091140301969093140312
:100BB00080931303809113039091140323E08934ED
:100BC000920729F4C2979093140380931303559AC4
:100BD00078940F900F90CF91DF910895EF92FF924C
:100BE000CF93DF93E82EE7017E01F92EE70101C0E4
:100BF000B2DF89918823E1F7DF91CF91FF90EF90E9
:100C00000895CF93DF93EC0102C0A5DF2196FE018A
:100C100084918823D1F7DF91CF910895BF92CF922D
:100C2000DF92EF92FF920F931F93DF93CF9300D049
:100C30000F92CDB7DEB76C01062F172FBB247E01B4
:100C40000894E11CF11C1BC0F60181916F0190E03A
:100C5000B70140E150E039D18A81882311F480E264
:100C60007ADFC701BBDF80E276DFB394FB2DF03182
:100C700021F486E290E0C5DFBB240150104001154D
:100C8000110511F70F900F900F90CF91DF911F91E9
:100C90000F91FF90EF90DF90CF90BF90089520913B
:100CA000DD023091DE028091DF029091E002281790
:100CB0003907A9F3E091DF02F091E00280812091F1
:100CC000DF023091E0022F5F3F4F3093E00220932C
:100CD000DF022091DF023091E00293E023313907F7
:100CE00031F4225330403093E0022093DF02089524
:100CF0004091DD025091DE022091DF023091E0024E
:100D000042175307F9F0E091DF02F091E0022081F1
:100D1000FC0120838091DF029091E0020196909384
:100D2000E0028093DF028091DF029091E002F3E025
:100D300083319F0749F4C2979093E0028093DF02CA
:100D400081E0089580E0089581E00895CF92DF92D8
:100D5000FF920F931F93DF93CF930F92CDB7DEB720
:100D60006C01FC0110828C0104C0F80181938F0199
:100D70006150F02EFC18698392DF6981882321F08D
:100D80008D3011F0662389F78F2D0F90CF91DF9171
:100D90001F910F91FF90DF90CF900895CF92DF9237
:100DA000FF920F931F93CF93DF938C01FC0110826E
:100DB000EC01FC2ECE019CDF882319F089918D3047
:100DC000C1F78F2D801BDF91CF911F910F91FF9065
:100DD000DF90CF9008950F931F93CF93DF93EC0193
:100DE000C60FD11D8E01CE0183DF882319F08991B2
:100DF0008D30C1F781E0F80190819D3009F080E0ED
:100E0000DF91CF911F910F910895991B79E004C054
:100E1000991F961708F0961B881F7A95C9F7809539
:100E2000089597FB092E07260AD077FD04D00CD031
:100E300006D000201AF4709561957F4F0895F6F75B
:100E4000909581959F4F0895AA1BBB1B51E107C048
:100E5000AA1FBB1FA617B70710F0A61BB70B881F4A
:100E6000991F5A95A9F780959095BC01CD010895D9
:100E7000FC0188279927E89421912032E9F3293051
:100E800010F02E30C8F32B3239F02D3231F4689443
:100E900003C03AD0820F911D219120532A30C8F30C
:100EA0001EF4909581959F4F0895FB01DC0102C0CF
:100EB00001900D9241505040D8F70895DC0101C0D7
:100EC0006D9341505040E0F70895FB019F01E89475
:100ED0004230BCF04532ACF44A3029F497FB1EF4A2
:100EE000909581959F4F642F7727AEDF805D8A3381
:100EF0000CF0895D8193CB010097A9F716F45DE2B0
:100F000051931082C9012BC27AE0979F902D879F41
:100F1000802D910D11240895AEE0B0E0E1E9F7E0F5
:100F2000C6C20D891E8986E08C831A8309838FEFE0
:100F30009FE79E838D839E01275E3F4FCE010196E2
:100F40006F89788DA90108D0EF81F885E00FF11F36
:100F500010822E96E4E0C7C2ACE0B0E0E1EBF7E02F
:100F600098C26C011B018A01FC01178216828381E1
:100F700081FFC4C12E010894411C511CF6019381CC
:100F8000F10193FD859193FF81911F01882309F45D
:100F9000B1C1853239F493FD859193FF81911F0191
:100FA000853221F490E0B601EAD1E8CFEE24FF24A7
:100FB00020E02032B0F48B3269F08C3228F4803299
:100FC00051F0833271F40BC08D3239F0803349F423
:100FD00021602CC02260246029C0286027C02061C5
:100FE00025C027FD2CC0382F30533A3098F426FF07
:100FF00008C08E2D880FE82EEE0CEE0CE80EE30EE6
:1010000015C08F2D880FF82EFF0CFF0CF80EF30E75
:1010100020620CC08E3221F426FD6CC1206406C013
:101020008C3611F4206802C0883649F4F10193FD32
:10103000859193FF81911F01882309F0BACF982FE2
:101040009554933018F09052933028F40C5F1F4F52
:10105000FFE3F9830DC0833631F0833771F08335B8
:1010600009F05CC021C0F801808189830E5F1F4FA9
:10107000420171E0A72EB12C15C062E0662E712CE2
:10108000600E711EF8018080918026FF03C06E2DD6
:1010900070E002C06FEF7FEFC4012C8755D15C0177
:1010A00083012C852F7716C052E0652E712C600EBF
:1010B000711EF8018080918026FF03C06E2D70E0C4
:1010C00002C06FEF7FEFC4012C8733D15C012C8508
:1010D0002068830123FD1EC007C080E290E0B601B6
:1010E0002C874DD1FA942C858F2D90E0A816B90647
:1010F000A0F310C0F40127FD859127FF81914F01D6
:1011000090E0B6012C873BD12C85F110FA9408941D
:10111000A108B108A114B10469F7E9C0843611F03F
:10112000893641F527FF08C0F8016081718182810D
:1011300093810C5F1F4F09C0F8016081718188277E
:1011400077FD8095982F0E5F1F4F4FE6B42EB22289
:1011500097FF09C090958095709561957F4F8F4F4F
:101160009F4FF0E8BF2AA2012AE030E034D1782E68
:10117000741844C0853731F43FEEB32EB2222AE012
:1011800030E025C099EFB92EB2228F36C1F08037FA
:1011900020F4883509F0AEC00DC0803721F08837C3
:1011A00009F0A8C002C020E1B22AB4FE0BC084E05E
:1011B000B82A08C0B4FE09C0E6E0BE2A06C028E08E
:1011C00030E005C020E130E002C020E132E0B7FEAF
:1011D00008C0F80160817181828193810C5F1F4F8B
:1011E00007C0F8016081718180E090E00E5F1F4FC1
:1011F000A201F1D0782E7418FFE7BF22B6FE0BC013
:101200002EEFB2227E1438F4B4FE07C0B2FC05C043
:101210008FEEB82202C0A72C01C0AE2C8B2D90E01F
:10122000B4FE0DC0FE01E70DF11D2081203319F43D
:10123000E9EEBE2209C0A394B2FE06C004C08678BF
:101240009070009709F0A3948B2C9924B3FC13C0E1
:10125000B0FE0EC0AF1428F4E72CEF0CEA18AF2C48
:1012600007C0E72C05C080E290E0B60188D0A394C7
:10127000AF14C8F304C0AF1410F4FA1801C0FF246F
:1012800084FE0EC080E390E0B60179D082FE1DC0DE
:1012900081FE03C088E590E010C088E790E00DC0B3
:1012A000C40186789070009781F081FC02C080E2D2
:1012B00001C08BE2B7FC8DE290E0B60160D005C0C2
:1012C00080E390E0B6015BD0EA947E14C8F37A9490
:1012D000F201E70DF11D808190E0B60150D077203A
:1012E000B1F705C080E290E0B60149D0FA94FF2042
:1012F000C9F744CEF6012681378102C02FEF3FEFB8
:10130000C9012C96E2E1E1C0E199FECF9FBB8EBB03
:10131000E09A99278DB30895262FE199FECF9FBBC0
:101320008EBB2DBB0FB6F894E29AE19A0FBE0196E0
:101330000895FC010590615070400110D8F7809528
:1013400090958E0F9F1F0895FC0161507040019091
:101350000110D8F7809590958E0F9F1F0895DC019E
:10136000FC01672F71917723E1F7329704C07C91DC
:101370006D9370836291AE17BF07C8F308950F9302
:101380001F93CF93DF938C01EB018B8181FF1BC0F7
:1013900082FF0DC02E813F818C819D8128173907E6
:1013A00064F4E881F9810193F983E88306C0E88554
:1013B000F985802F0995009731F48E819F810196E0
:1013C0009F838E8302C00FEF1FEFC801DF91CF9183
:1013D0001F910F910895FA01AA27283051F1203169
:1013E00081F1E8946F936E7F6E5F7F4F8F4F9F4FB9
:1013F000AF4FB1E03ED0B4E03CD0670F781F891FFB
:101400009A1FA11D680F791F8A1F911DA11D6A0FC8
:10141000711D811D911DA11D20D009F468943F917B
:101420002AE0269F11243019305D3193DEF6CF017A
:101430000895462F4770405D4193B3E00FD0C9F740
:10144000F6CF462F4F70405D4A3318F0495D31FDAD
:101450004052419302D0A9F7EACFB4E0A695979500
:10146000879577956795BA95C9F7009761057105D6
:1014700008959B01AC010A2E069457954795379520
:101480002795BA95C9F7620F731F841F951FA01D7A
:1014900008952F923F924F925F926F927F928F9218
:1014A0009F92AF92BF92CF92DF92EF92FF920F93F3
:1014B0001F93CF93DF93CDB7DEB7CA1BDB0B0FB6FD
:1014C000F894DEBF0FBECDBF09942A8839884888BA
:1014D0005F846E847D848C849B84AA84B984C88450
:1014E000DF80EE80FD800C811B81AA81B981CE0F47
:1014F000D11D0FB6F894DEBF0FBECDBFED0108952C
:04150000F894FFCF8D
:1015040072783A2025642028747970653D694329EE
:101514000D0A0072783A20252E32662028747970DC
:10152400653D6654290D0A0073657276696365200A
:101534006D6F6465204F4B0D0A00466F726D6174C8
:10154400206465722045696E676162653A20203CBB
:10155400434D443E3C4F503E5B3C56414C55453E0A
:101564005D0D0A003C434D443E093D20436F6D6DC3
:10157400616E643A20683D68656C702C206E3D6E27
:101584006F646549640D0A003C56414C55453E095B
:101594003D206F7074696F6E616C6572205765725F
:1015A400740D0A004F4B006E6F646549443D256419
:1015B400204F4B0D0A006F70657261746F72206961
:1015C4006E76616C6964204552524F520D0A00696F
:1015D40073476174657761793D2564204F4B0D0A2B
:1015E4000073657276696365206D6F646520657844
:1015F4006974204F4B0D0A00636F6D6D616E64203A
:10160400696E76616C6964204552524F520D0A002E
:101614006E6F646549443D25640D0A006677642055
:10162400286164725372633D25642C2061647244A2
:101634006573743D25642C2074746C3D2564290DF8
:101644000A00747820286164725372633D25642C07
:1016540020616472446573743D25642C74746C3D1C
:101664002564290D0A0000000000000000000000AD
:101674000000000000000000000000000000000066
:101684000000000000000000000000000000000056
:101694000000000000000000000000000000000046
:1016A4000000000000000000000000000000000036
:1016B4000000000000000000000000000000000026
:1016C4000000000000000000000000000000000016
:1016D4000000000000000000000000000000000006
:1016E40000000000000000000000000000000000F6
:1016F40000000000000000000000000000000000E6
:1017040000000000000000000000000000000000D5
:1017140000000000000000000000000000000000C5
:1017240000000000000000000000000000000000B5
:1017340000000000000000000000000000000000A5
:101744000000000000000000000000000000000095
:101754000000000000000000000000000000000085
:101764000000000000100D0A4853204D686D0D0A5A
:02177400000073
:00000001FF
