:1000000014C057C62DC02CC02BC02AC029C028C080
:1000100027C026C025C0ABC86BC822C021C020C0E5
:100020001FC01EC01DC00D0A000011241FBECFE559
:10003000D4E0DEBFCDBF13E0A0E6B0E0E0EBFBE133
:1000400002C005900D92AA33B107D9F714E0AAE3D4
:10005000B3E001C01D92A232B107E1F725D8A6CDC9
:10006000CFCFFC0139969C01225F3F4F87E69191EB
:100070008927E217F307D9F7089540913A03FC0165
:10008000349620E030E019C0541791F467FF22C085
:10009000F9013496E80FF91F04C02F5F3F4F8181AB
:1000A000819322303105B4F480818823B1F712C0E6
:1000B0002F5F3F4F2330310519F05191552321F720
:1000C000161654F4233031054CF4820F931FFC01B3
:1000D000448302C081E0089580E008958FEF089581
:1000E00081B3806681BBBF9A979A1092420360D712
:1000F00080E008958F929F92AF92BF92CF92DF924D
:10010000EF92FF920F931F93DF93CF9300D000D015
:100110000F92CDB7DEB719821A821B821C821D8214
:10012000882309F49DC080E690E0CDD86E01089444
:10013000C11CD11C0CEC12E021E0A22E21E0B22E59
:1001400093E0E92EF12CEC0EFD1E83EE882E80E06C
:10015000982EC60165E06FD98981883509F479C088
:10016000893540F48834A1F08E3409F1873409F0E0
:1001700073C03DC0883661F0893620F4873609F0B7
:100180006BC035C08E3699F0883709F065C061C004
:100190008A818F33F1F682E790E095D88FE890E07E
:1001A00092D889EC90E08FD88EED90E057C08A818C
:1001B0008D3321F08F3309F049C008C0C701A1D9A0
:1001C000682F80933A0380E090E0E8DB00D000D015
:1001D00000D0EDB7FEB73196ADB7BEB712961C93FF
:1001E0000E9311979382828280913A0322C08A8172
:1001F0008D3319F08F3351F50CC0C70182D961E0FE
:10020000181619060CF060E060933B0381E090E063
:10021000C5DB00D000D000D0EDB7FEB73196ADB74A
:10022000BEB712961C930E931197B382A28280914F
:100230003B0384831582B2D98DB79EB706960FB65D
:10024000F8949EBF0FBE8DBFC80108C082EF90E03A
:1002500005C083E191E03DC08AE291E034D879CFD6
:1002600080E090E093DB80933A0381E090E08EDBC6
:1002700080933B038F3F31F410923B0381E090E089
:1002800060E08CDBADB7BEB718970FB6F894BEBF71
:100290000FBEADBFEDB7FEB731960CEC12E0129673
:1002A0001C930E9311978AE391E09383828380914C
:1002B0003A038483158280913B03868317826ED92B
:1002C0008DB79EB708960FB6F8949EBF0FBE8DBF30
:1002D000C801F9D780E00F900F900F900F900F900A
:1002E000CF91DF911F910F91FF90EF90DF90CF9012
:1002F000BF90AF909F908F90089581E090913B03C5
:10030000992309F480E008952F923F924F925F92D3
:100310006F927F928F929F92AF92BF92CF92DF9215
:10032000EF92FF920F931F93CF93DF93E091B70368
:10033000F091B8038081823009F05CC2969A88E817
:1003400093E19093490380934803A180BB243496A2
:10035000F0934103E0934003CCECD2E003E3802E22
:1003600002E0902E19EC612E11E0712EB8E84B2EB0
:10037000B3E15B2EA9EB2A2EA1E03A2E35C2009103
:10038000400310914103D8011E96EC90C80169DE2C
:10039000E81609F002C2F8018185823049F1833004
:1003A00009F451C0813009F07DC02DB73EB7285007
:1003B00030400FB6F8943EBF0FBE2DBFEDB7FEB76D
:1003C0003196ADB7BEB71296DC93CE9311972DE55B
:1003D00031E033832283D8011A968D919C911B972B
:1003E0009583848311968C9111978683178250C0D0
:1003F0002DB73EB7285030400FB6F8943EBF0FBE21
:100400002DBF2F5F3F4FADB7BEB71296DC93CE9393
:1004100011978BE791E0F90193838283F80182853C
:100420009385A485B585F90184839583A683B783D5
:10043000B5D82DB73EB7285F3F4F0FB6F8943EBFF3
:100440000FBE2DBF4AC0D8018C9181FF03C080E24E
:1004500090E002C08EE690E0EDB7FEB738970FB699
:10046000F894FEBF0FBEEDBF3196ADB7BEB7129682
:10047000DC93CE9311972EE831E03383228395836A
:100480008483D8011A968D919C911B9797838683BC
:1004900085D8EDB7FEB738960FB6F894FEBF0FBEFD
:1004A000EDBF1BC000D000D000D0EDB7FEB7319635
:1004B000ADB7BEB71296DC93CE93119725EA31E023
:1004C000338322838483158269D88DB79EB70696BD
:1004D0000FB6F8949EBF0FBE8DBFCE01F4D600912B
:1004E000400310914103E0903A03D80113968C9198
:1004F00013978E1541F001DF882309F4BDC0F80180
:10050000828180FFB9C0D8014C91242F30E0C9010D
:1005100086709070009709F44FC080913C03823040
:1005200039F490919B0318968C911897981781F045
:1005300080913D03823009F053C19091AA03F801E4
:100540008085981709F04CC1F1E0EF2EF12C02C024
:10055000EE24FF2421FD03C088E591E002C084E57C
:1005600091E02DB73EB7285030400FB6F8943EBF0B
:100570000FBE2DBFEDB7FEB73196ADB7BEB7129621
:10058000DC93CE9311973382228295838483D801A2
:1005900018968C918683178201D8EDB7FEB73896EE
:1005A0000FB6F894FEBF0FBEEDBFCE018CD6F7019B
:1005B000E45CFC4F108214C1D80111968C91119704
:1005C00013968C9313971196EC9211974170129693
:1005D0004C93129781E090913B03992309F480E0BA
:1005E0008260F801808323E0218713861286C80188
:1005F00038DDD8011E968C931E97E5E01796EC9394
:1006000021D5882309F0ECC02DB73EB72A503040E1
:100610000FB6F8943EBF0FBE2DBFEDB7FEB73196B3
:10062000ADB7BEB71296DC93CE93119773826282F8
:10063000D80111968C9111978483158213968C9111
:1006400013978683178217968C9180871186A6D779
:10065000EDB7FEB73A960FB6F894FEBF0FBEEDBFEA
:10066000CE0131D68FE060E0A80157D4959A509220
:100670004B0340924A03B4C0D80117968C91179748
:10068000815017968C931797882309F4A9C08C91F1
:10069000867039F0C8016FEFF0DC18160CF474C1E5
:1006A0009FC0C80161E0E9DC882309F46DC198C0EE
:1006B000EDB7FEB73C970FB6F894FEBF0FBEEDBF87
:1006C0003196ADB7BEB71296DC93CE9311972FEE4D
:1006D00031E03383228381E192E095838483D801E2
:1006E00011968C9111978683178213968C9113978C
:1006F0008087118617968C91828713864FD7EDB726
:10070000FEB73C960FB6F894FEBF0FBEEDBFCE010C
:10071000DAD5E4E0CE2ED12CC00ED11EEE24FF247B
:100720002CC02DB73EB7285030400FB6F8943EBFCE
:100730000FBE2DBFEDB7FEB73196ADB7BEB712965F
:10074000DC93CE93119725E132E033832283E48258
:10075000F5828683178222D78DB79EB708960FB68B
:10076000F8949EBF0FBE8DBFCE01ADD50894E11C9D
:10077000F11C93E0E916F10429F0D6018D916D0189
:10078000882379F683E292E09ED58FE060E0A801AD
:10079000C4D326C087E292E022C0EDB7FEB73897F7
:1007A0000FB6F894FEBF0FBEEDBF3196ADB7BEB722
:1007B0001296DC93CE93119793828282D801189679
:1007C0008C9184831582E6821782E8D6EDB7FEB756
:1007D00038960FB6F894FEBF0FBEEDBFCE0173D5AD
:1007E00021EF3FEFA20EB31E3FE0A316B10408F0C5
:1007F000C6CDBED38091440390914503009749F044
:100800008091440390914503019790934503809311
:1008100044038091440390914503009709F07BC005
:10082000809146039091470380914603909147033E
:1008300001979093470380934603809146039091DC
:100840004703009709F067C080E29EE49093450358
:100850008093440390934703809346030CE313E093
:100860007BE9E72E73E0F72ECEE3D3E068EFA62E08
:100870006FEFB62EAE0CBF1C5CECC52E52E0D52E31
:1008800044E7842E42E0942E34E5632E32E0732E4A
:10089000D8018C91823081F58881833008F079C04D
:1008A000D1D3882349F588818F5F8883EDB7FEB760
:1008B00038970FB6F894FEBF0FBEEDBF3196ADB7B7
:1008C000BEB71296DC92CE92119773826282D701E4
:1008D0009C91948315828683178260D6EDB7FEB70C
:1008E00038960FB6F894FEBF0FBEEDBFC601EBD42D
:1008F0008FE060E0A50111D30F5F1F4F2FE030E0C4
:10090000E20EF31E21960894A11CB11C33E00E33B5
:10091000130709F0BDCF91D280914803909149030C
:10092000009729F0019790934903809348038091A1
:10093000480390914903009709F4969880914A03DF
:1009400090914B03009729F0019790934B0380936C
:100950004A0380914A0390914B03009709F49598BC
:1009600081E0DF91CF911F910F91FF90EF90DF9089
:10097000CF90BF90AF909F908F907F906F905F903F
:100980004F903F902F9008955DD3882309F490CE27
:1009900001CF00D000D000D0EDB7FEB73196ADB793
:1009A000BEB71296DC92CE92119793828282D701C3
:1009B0008C9184831582F2D5EDB7FEB736960FB6CB
:1009C000F894FEBF0FBEEDBFC6017DD4D8011C92C6
:1009D000188292CF80914203E82FF0E0E45CFC4F54
:1009E0009081992391F08F5F817080934203E82F6B
:1009F000F0E0E45CFC4F9081992339F08F5F8170C7
:100A00008093420320E030E012C08091420390E0E6
:100A1000FC01E45CFC4F21E020839C0144E0220FB8
:100A2000331F4A95E1F7281B390B23563C4FC90168
:100A30000895CF92DF92EF92FF920F931F93DF936F
:100A4000CF930F92CDB7DEB76C01E0904203FF2445
:100A50006983F8D26981882311F420E001C022E083
:100A60008701E4E0000F111FEA95E1F70E191F0955
:100A7000C80183569C4FC816D90609F0BDC0222371
:100A800009F0BBC00D561C4F90913B0381E09923A8
:100A900009F480E0D8018C93F70174E0EE0FFF1F9A
:100AA0007A95E1F7EE19FF09ED56FC4F80913A0374
:100AB000818381E0911180E08283670154E0CC0C56
:100AC000DD1C5A95E1F7CE18DF08E3E9F3E0CE0E1E
:100AD000DF1ED60113961C92139785E017968C9310
:100AE0001797809143038F5F8093430318968C93ED
:100AF000189719966C93C801B4DAF60186878FE0CF
:100B000060E0A8010AD2282F0CEC12E0803809F02E
:100B100053C08DB79EB70C970FB6F8949EBF0FBE0B
:100B20008DBFEDB7FEB73196ADB7BEB712961C9329
:100B30000E9311978FE892E093838283D6011196EA
:100B40008C9111978483158213968C9113978683C9
:100B5000178217968C9117978087118618968C911B
:100B60008287138629831AD5EDB7FEB73C960FB658
:100B7000F894FEBF0FBEEDBFC801A5D3809142031C
:100B800090E0FC01E45CFC4F32E03083825C9C4FDF
:100B9000DC011C9280E29EE4909345038093440321
:100BA0009093470380934603959A88E893E1909346
:100BB0004B0380934A031EC000D000D000D0EDB795
:100BC000FEB73196ADB7BEB712961C930E93119730
:100BD0008EEB92E093838283248315822983DED473
:100BE000EDB7FEB736960FB6F894FEBF0FBEEDBF59
:100BF000C80169D3298101C021E0822F0F90CF91D4
:100C0000DF911F910F91FF90EF90DF90CF900895AB
:100C10004091420350E09A01F4E0220F331FFA950D
:100C2000E1F7241B350B23563C4F2817390721F4D5
:100C3000445C5C4FFA0110820895C2989FB9779B7B
:100C4000FECF8FB9779BFECFC29A0895C2989FB905
:100C5000779BFECF9FB1592F40E08FB9779BFECF96
:100C60002FB1C29A30E0242B352BC9010895C298C8
:100C70001FB8779BFECFC29A8FB10895C2988FB9E3
:100C8000779BFECF6FB9779BFECFC29A0895C2982B
:100C900080EB8FB9779BFECF1FB8779BFECFC29AB0
:100CA0008FB10895BB9ABD9ABA9ABC9881E58DB967
:100CB000089578941F920F920FB60F9211241F93EC
:100CC0002F933F934F935F936F937F938F939F9354
:100CD000AF93BF93EF93FF938BB78F7B8BBF89E667
:100CE000AFD2C5DF87FF94C08091B103813011F18D
:100CF000813020F0823009F083C066C011E010938B
:100D0000B403C5DF80934D038D5F8093B30389E403
:100D100097D280914D0394D2E091B503F091B60340
:100D20008081882309F06CC01093B10380914D033A
:100D300081836EC09091B4038091B303981708F536
:100D4000A6DF182F82E57CD2812F7AD280914D03C5
:100D5000812780934D039091B403913238F4E09150
:100D6000B503F091B603E90FF11D11839091B4031F
:100D7000923019F48F3F09F043C09F5F9093B40302
:100D800047C084E45DD2E091B503F091B60382E000
:100D900080838091B90390E0019681709070809378
:100DA000B903282F30E0C901880F991F45E0220FB1
:100DB000331F4A95E1F7820F931F85549C4F909300
:100DC000B6038093B5031CC084E53AD28091B40386
:100DD0009091B303891750F4E82FF0E0E150FC4FF5
:100DE00060818F5F8093B40388EB11C01092B203CF
:100DF00086E626D281E892E820DF88EB6AEA3EDFC9
:100E00001092B1038AEC61E839DF8AEC63E836DFDF
:100E10008BB780648BBFFF91EF91BF91AF919F9192
:100E20008F917F916F915F914F913F912F911F9182
:100E30000F900FBE0F901F9018951F931091B10344
:100E400080914C038117B9F08EEF92E03CD21130C3
:100E500039F0113018F0123039F404C089E605C0B9
:100E600082E703C084E701C08FE3EAD18CE093E01E
:100E70002AD210934C038091B1038823C9F58BB714
:100E80008F7B8BBF80E090E0E1DE2BB720642BBF2F
:100E900090FF04C088EC80931A032AC080911A0343
:100EA000815080931A03882319F581E080931A03F7
:100EB0008091B2038130E1F48BB78F7B8BBF81E0EF
:100EC00092E8BBDE809101048A5F8093B3031092A5
:100ED000B40382E08093B1038AEA98EBAEDE8AEA3B
:100EE00098EBABDE81E292E8A8DE8BB780648BBF23
:100EF0001F9108959091B203992369F460930104BE
:100F000080930204862780958093030481E0809378
:100F1000B20380E8089583E008950F931F93DF9351
:100F2000CF9300D0CDB7DEB7182F062F8FE093E018
:100F300049835A83C8D149815A811F3178F48091FD
:100F4000B203882369F424E034E0C901BA01412FD7
:100F500050E0F4D2802F612FCDDF03C082E001C0CA
:100F600083E00F900F90CF91DF911F910F91089523
:100F7000E091B703F091B80310828091BA0390E03A
:100F80000196817090708093BA03282F30E0C901D8
:100F9000880F991F65E0220F331F6A95E1F7820FD2
:100FA000931F85549C4F9093B8038093B703089583
:100FB000C29ABA9A77DE87ED90E83FDE81E092E848
:100FC0003CDE80EB94EA39DE83E296EC36DE8CE29E
:100FD00094E933DE8BEA92EC30DE81E89AEC2DDE88
:100FE00087EF94EC2ADE80E798E927DE80E098EC32
:100FF00024DE80E090EE21DE8DE28093FF0384ED1D
:10100000809300048BEB93E09093B8038093B70335
:101010009093B6038093B50381E892E80EDE85B71E
:10102000826085BF80E090E011DE8AB780648ABF6D
:1010300081E89AEC02DE83E89AECFFDD8BB78064EE
:101040008BBF08958091B2030895FC0180914E03F7
:101050008F5F80934E0391E0DB019C93808311822C
:1010600081E0089520913703309138032230310513
:1010700030F0109238031092370381E00895809188
:101080003503909136030196909336038093350390
:10109000009741F42F5F3F4F30933803209337037D
:1010A00080E0089580E00895BF9A979AB99818D87B
:1010B000A1D078948BE193E006D186B382701AD8E0
:1010C00086E293E000D1CEDF882381F016D9882311
:1010D00069F480DC009751F020914E032F5F20933C
:1010E0004E03FC012083118261E0A3DC0DD9EBCF1C
:1010F0001F920F920FB60F9211242F933F938F934D
:101100009F93EF93FF9320915D0330915E03809155
:101110005F03909160032817390711F455981CC09C
:10112000E0915F03F091600380818CB980915F034F
:101130009091600301969093600380935F03809188
:101140005F039091600323E08339920729F4C297EB
:101150009093600380935F03FF91EF919F918F9134
:101160003F912F910F900FBE0F901F9018951F92D7
:101170000F920FB60F9211242F933F938F939F934B
:10118000EF93FF9380914F0390915003209151036F
:1011900030915203821B930B97FD0A96893091057B
:1011A000ECF4E0914F03F09150038CB18083809177
:1011B0004F039091500301969093500380934F03F7
:1011C00080914F039091500323E08D35920739F4BD
:1011D0000A979093500380934F0301C08CB1FF9105
:1011E000EF919F918F913F912F910F900FBE0F9094
:1011F0001F901895539A80B5866880BD549A10BC8C
:1012000086E289B983E593E090935203809351037A
:1012100080915103909152039093500380934F0318
:1012200081E693E09093600380935F0380915F0376
:101230009091600390935E0380935D03579A0895A5
:10124000DF93CF9300D0CDB7DEB720915D0330910F
:101250005E0340915F0350916003241B350B3A837A
:10126000298329813A8137FF06C029813A812E5C82
:101270003F4F3A83298329813A81213331052CF765
:10128000F894E0915D03F0915E03808380915D03AB
:1012900090915E03019690935E0380935D0380912D
:1012A0005D0390915E0323E08339920729F4C2978E
:1012B00090935E0380935D03559A78940F900F90FE
:1012C000CF91DF910895EF92FF92CF93DF93E82EB5
:1012D000E7017E01F92EE70101C0B2DF8991882381
:1012E000E1F7DF91CF91FF90EF900895CF93DF93D7
:1012F000EC0102C0A5DF2196FE0184918823D1F77D
:10130000DF91CF910895BF92CF92DF92EF92FF923B
:101310000F931F93DF93CF9300D00F92CDB7DEB71B
:101320006C01062F172FBB247E010894E11CF11CD1
:101330001BC0F60181916F0190E0B70140E150E0E0
:1013400006D18A81882311F480E27ADFC701BBDFEE
:1013500080E276DFB394FB2DF03121F486E290E059
:10136000C5DFBB24015010400115110511F70F9086
:101370000F900F90CF91DF911F910F91FF90EF9001
:10138000DF90CF90BF90089520914F03309150038C
:10139000809151039091520328173907A9F3E091E6
:1013A0005103F091520380812091510330915203F7
:1013B0002F5F3F4F309352032093510320915103ED
:1013C0003091520393E02D35390731F42A503040E3
:1013D0003093520320935103089540914F0350914D
:1013E0005003209151033091520342175307F9F0F3
:1013F000E0915103F09152032081FC012083809100
:10140000510390915203019690935203809351039C
:101410008091510390915203F3E08D359F0749F479
:101420000A97909352038093510381E0089580E0DE
:10143000089581E00895CF92DF92FF920F931F935A
:10144000DF93CF930F92CDB7DEB76C01FC01108212
:101450008C0104C0F80181938F016150F02EFC18BB
:10146000698392DF6981882321F08D3011F0662332
:1014700089F7F801E60FF11D319710828F2D0F903B
:10148000CF91DF911F910F91FF90DF90CF90089542
:10149000CF92DF92FF920F931F93CF93DF938C0134
:1014A000FC011082EC01FC2ECE0197DF882319F09D
:1014B00089918D30C1F78F2D801BDF91CF911F91C6
:1014C0000F91FF90DF90CF9008950F931F93CF93CC
:1014D000DF93FB012081EC01C20FD11D8E01CE01F3
:1014E0007CDF882319F089918D30C1F781E0F80104
:1014F00090819D3009F080E0DF91CF911F910F9195
:101500000895FC0188279927E89421912032E9F376
:10151000293010F02E30C8F32B3239F02D3231F44F
:10152000689403C033D0820F911D219120532A303B
:10153000C8F31EF4909581959F4F0895FB01DC013F
:1015400002C001900D9241505040D8F70895FB0120
:101550009F01E8944230BCF04532ACF44A3029F4A3
:1015600097FB1EF4909581959F4F642F7727D3D2D8
:10157000805D8A330CF0895D8193CB010097A9F7D8
:1015800016F45DE251931082C9012BC27AE0979F55
:10159000902D879F802D910D11240895AEE0B0E02D
:1015A000E3EDFAE0DAC20D891E8986E08C831A83A6
:1015B00009838FEF9FE79E838D839E01275E3F4FB8
:1015C000CE0101966F89788DA90108D0EF81F88549
:1015D000E00FF11F10822E96E4E0DBC2ACE0B0E039
:1015E000E3EFFAE0ACC26C011B018A01FC01178237
:1015F0001682838181FFC4C12E010894411C511CB5
:10160000F6019381F10193FD859193FF81911F0173
:10161000882309F4B1C1853239F493FD859193FF94
:1016200081911F01853221F490E0B601EAD1E8CF23
:10163000EE24FF2420E02032B0F48B3269F08C32AB
:1016400028F4803251F0833271F40BC08D3239F0BE
:10165000803349F421602CC02260246029C02860B6
:1016600027C0206125C027FD2CC0382F30533A30C9
:1016700098F426FF08C08E2D880FE82EEE0CEE0C95
:10168000E80EE30E15C08F2D880FF82EFF0CFF0C0F
:10169000F80EF30E20620CC08E3221F426FD6CC1D0
:1016A000206406C08C3611F4206802C0883649F4E4
:1016B000F10193FD859193FF81911F01882309F02A
:1016C000BACF982F9554933018F09052933028F455
:1016D0000C5F1F4FFFE3F9830DC0833631F0833772
:1016E00071F0833509F05CC021C0F80180818983E5
:1016F0000E5F1F4F420171E0A72EB12C15C062E0B2
:10170000662E712C600E711EF8018080918026FF7C
:1017100003C06E2D70E002C06FEF7FEFC4012C8715
:1017200055D15C0183012C852F7716C052E0652EC0
:10173000712C600E711EF8018080918026FF03C01D
:101740006E2D70E002C06FEF7FEFC4012C8733D1A4
:101750005C012C852068830123FD1EC007C080E248
:1017600090E0B6012C874DD1FA942C858F2D90E016
:10177000A816B906A0F310C0F40127FD859127FF34
:1017800081914F0190E0B6012C873BD12C85F1105F
:10179000FA940894A108B108A114B10469F7E9C04A
:1017A000843611F0893641F527FF08C0F8016081C1
:1017B0007181828193810C5F1F4F09C0F8016081A4
:1017C0007181882777FD8095982F0E5F1F4F4FE618
:1017D000B42EB22297FF09C09095809570956195BF
:1017E0007F4F8F4F9F4FF0E8BF2AA2012AE030E0E1
:1017F00034D1782E741844C0853731F43FEEB32EBF
:10180000B2222AE030E025C099EFB92EB2228F36FD
:10181000C1F0803720F4883509F0AEC00DC08037A4
:1018200021F0883709F0A8C002C020E1B22AB4FE36
:101830000BC084E0B82A08C0B4FE09C0E6E0BE2AA6
:1018400006C028E030E005C020E130E002C020E121
:1018500032E0B7FE08C0F801608171818281938116
:101860000C5F1F4F07C0F8016081718180E090E03C
:101870000E5F1F4FA201F1D0782E7418FFE7BF2230
:10188000B6FE0BC02EEFB2227E1438F4B4FE07C0B1
:10189000B2FC05C08FEEB82202C0A72C01C0AE2C4E
:1018A0008B2D90E0B4FE0DC0FE01E70DF11D2081EF
:1018B000203319F4E9EEBE2209C0A394B2FE06C09B
:1018C00004C086789070009709F0A3948B2C99241B
:1018D000B3FC13C0B0FE0EC0AF1428F4E72CEF0C1D
:1018E000EA18AF2C07C0E72C05C080E290E0B601F3
:1018F00088D0A394AF14C8F304C0AF1410F4FA183E
:1019000001C0FF2484FE0EC080E390E0B60179D0D0
:1019100082FE1DC081FE03C088E590E010C088E70C
:1019200090E00DC0C40186789070009781F081FC32
:1019300002C080E201C08BE2B7FC8DE290E0B6010C
:1019400060D005C080E390E0B6015BD0EA947E14DD
:10195000C8F37A94F201E70DF11D808190E0B601A1
:1019600050D07720B1F705C080E290E0B60149D0B1
:10197000FA94FF20C9F744CEF6012681378102C0D0
:101980002FEF3FEFC9012C96E2E1F5C0E199FECFC0
:101990009FBB8EBBE09A99278DB30895262FE199BE
:1019A000FECF9FBB8EBB2DBB0FB6F894E29AE19A97
:1019B0000FBE01960895FC01059061507040011022
:1019C000D8F7809590958E0F9F1F0895FC01615068
:1019D000704001900110D8F7809590958E0F9F1F51
:1019E0000895DC01FC01672F71917723E1F73297AD
:1019F00004C07C916D9370836291AE17BF07C8F3EA
:101A000008950F931F93CF93DF938C01EB018B818C
:101A100081FF1BC082FF0DC02E813F818C819D8183
:101A20002817390764F4E881F9810193F983E88381
:101A300006C0E885F985802F0995009731F48E81DD
:101A40009F8101969F838E8302C00FEF1FEFC80115
:101A5000DF91CF911F910F910895FA01AA272830A5
:101A600051F1203181F1E8946F936E7F6E5F7F4F6B
:101A70008F4F9F4FAF4FB1E03ED0B4E03CD0670FE7
:101A8000781F891F9A1FA11D680F791F8A1F911D3A
:101A9000A11D6A0F711D811D911DA11D20D009F48A
:101AA00068943F912AE0269F11243019305D3193CC
:101AB000DEF6CF010895462F4770405D4193B3E0B5
:101AC0000FD0C9F7F6CF462F4F70405D4A3318F05C
:101AD000495D31FD4052419302D0A9F7EACFB4E00D
:101AE000A6959795879577956795BA95C9F70097C5
:101AF0006105710508959B01AC010A2E0694579566
:101B0000479537952795BA95C9F7620F731F841FBC
:101B1000951FA01D0895AA1BBB1B51E107C0AA1F5A
:101B2000BB1FA617B70710F0A61BB70B881F991F7E
:101B30005A95A9F780959095BC01CD0108952F92F3
:101B40003F924F925F926F927F928F929F92AF924D
:101B5000BF92CF92DF92EF92FF920F931F93CF939A
:101B6000DF93CDB7DEB7CA1BDB0B0FB6F894DEBF31
:101B70000FBECDBF09942A88398848885F846E8457
:101B80007D848C849B84AA84B984C884DF80EE80A1
:101B9000FD800C811B81AA81B981CE0FD11D0FB6AA
:101BA000F894DEBF0FBECDBFED010895F894FFCFCE
:101BB00073657276696365206D6F6465204F4B0DA8
:101BC0000A00466F726D61743A093C434D443E3CD5
:101BD0004F503E5B3C56414C55453E5D0D0A003C26
:101BE000434D443E093D20683D68656C702C206E75
:101BF0003D6E6F646549642C20673D67617465774D
:101C000061792C206C3D6C6F674C6576656C2C207F
:101C1000783D657869740D0A003C56414C55453E47
:101C2000093D206F70742E576572740D0A004F4B7A
:101C30000D0A006E6F646549443D2564204F4B0DCD
:101C40000A006F7020696E76204552524F520D0A7D
:101C5000006973476174657761793D2564204F4B56
:101C60000D0A0073657276696365206D6F64652087
:101C700065786974204F4B0D0A00636D6420696EAE
:101C800076204552524F520D0A006E6F64654944EA
:101C90003D25642C206973476174657761793D2522
:101CA000640D0A0061636B006E61636B0072783AC9
:101CB00020256420286164725372633D25642C20C2
:101CC000747970653D6943290D0A0072783A2025C0
:101CD000672028747970653D6654290D0A00727872
:101CE0003A20256361636B20286572726F723D250F
:101CF00064290D0A0072783A202D3F2D202874792E
:101D000070653D2564290D0A0025732028736571CF
:101D10004E723D2564290D0A0061636B20286164C1
:101D2000725372633D25642C206164724465737440
:101D30003D25642C2074746C3D2564290D0A002512
:101D40007320286164725372633D25642C206164A2
:101D500072446573743D25642C2074746C3D256455
:101D600000667764002C20706174685B25645D3DBB
:101D7000256400290D0A00667764206572726F720F
:101D80000D0A0072782077726F6E67204353202807
:101D90007365714E723D25642C2073756D3D25640D
:101DA000290D0A0074782072657472792028736591
:101DB000714E723D25642C2072657472793D2564E4
:101DC000290D0A006572726F723A206E6F2061638E
:101DD0006B20287365714E723D2564290D0A0074CD
:101DE0007820286164725372633D25642C206164FD
:101DF00072446573743D25642C2074746C3D2564B5
:101E00002C207365714E723D2564290D0A0074788B
:101E1000206572726F72202825642900000000007E
:101E200000000000000000000000000000000000B2
:101E300000000000000000000000000000000000A2
:101E400000000000000000000000000000006D6FB6
:101E50006465206368616E67653A20000D0A007250
:101E6000666D31325F74780D0A00100D0A485320F8
:101E70004D686D0D0A000D0A72756E6E696E6720F1
:0A1E80002E2E0D0A000000020000E3
:00000001FF
